:060000000A128A11122809
:10000800FE00030EF0000408F1000A08F200831253
:1000180003137F08F3000A128A11142D0A128A1199
:1000280015280A128A11B226F900B501B601F6019F
:10003800F701F80183010A128A11A42E831203130F
:10004800B00041280A128A1108260A128A110A12D7
:100058008A114A250A128A114B280A128A1108267F
:100068000A128A11831203133616083085060A12FB
:100078008A1157260A128A114B2883120313300853
:10008800DF3A03193128313A031926284B288312FD
:100098000313361D0800972A0A128A1108260A1225
:1000A8008A11831203133616043085060A128A1140
:1000B800572608000A128A1108260A128A11831282
:1000C80003133616203085060A128A1157260800AF
:1000D8000A128A1108260A128A1183120313361685
:1000E800013085060A128A11572608000A128A1159
:1000F80008260A128A1100300A128A11D1220A121D
:100108008A1178188928F81C8E282F300A128A112B
:1001180091260800F8199228781D080015300A124F
:100128008A11912608000A128A1108260A128A11D1
:10013800F819AC280A128A1157260A128A11F815DA
:1001480083120313361215300A128A1191260800F9
:100158000A128A11572683120313361608000A1248
:100168008A1108260A128A1102300A128A11D1222B
:1001780008000A128A1108260A128A118312031328
:10018800361605300A128A11B0250A128A110A1287
:100198008A11572608000A128A1108260A128A119B
:1001A80003300A128A11D12208000A128A1108267D
:1001B8000A128A1101300A128A11D1220A128A11EE
:1001C8007818E828F81CED282F300A128A11912691
:1001D8000800F819F128781D080015300A128A114C
:1001E800912608000A128A1108260A128A11831613
:1001F80003130C108312031336120A128A1157269E
:100208000A128A117814FF300A128A11B0250A12CC
:100218008A11113084000A128A1131260A128A11B1
:1002280083120313A0000A128A1131260A128A11B6
:10023800A1000A128A1131260A128A11A2000A1292
:100248008A1131260A128A11A3000A128A113B2345
:100258000A128A112F300A128A11912608000A12EE
:100268008A1108260A128A11831203133616FF30E0
:100278000A128A11B0250A128A11F81C472983121A
:10028800031386174C290A128A1157260A128A1153
:10029800153084000A128A1131260A128A11831233
:1002A8000313A0000A128A1131260A128A11A1002A
:1002B8000A128A1131260A128A11A2000A128A1118
:1002C80031260A128A11A3000A128A113B23080058
:1002D8000A128A1108260A128A1183120313361683
:1002E800FF300A128A11B0250A128A110A128A11DD
:1002F80057260A128A11193084000A128A113126E7
:100308000A128A1183120313A0000A128A113126D5
:100318000A128A11A1000A128A1131260A128A11B8
:10032800A2000A128A1131260A128A11A3000A129F
:100338008A113B2308000A128A1108260A128A1118
:10034800831203133616FF300A128A11B0250A12D7
:100358008A110A128A1157260A128A111D3084003E
:100368000A128A1131260A128A1183120313A00075
:100378000A128A1131260A128A11A1000A128A1158
:1003880031260A128A11A2000A128A1131260A128B
:100398008A11A3000A128A113B230800831603134B
:1003A8000C10F818002A0A128A1108260A128A1153
:1003B8008312031336120A128A1157260A128A1157
:1003C800831203138617F81488118810081108126D
:1003D80008140330AF008A30AE005630AD00AD0BC4
:1003E800F329AE0BF329AF0BF329FA298312031370
:1003F8000810F701F70A08000A128A1108260A12DB
:100408008A118312031336160A128A115726080016
:10041800831603130C108312031336128811081164
:10042800081208100A128A1108260A128A11831261
:10043800031388140330AF008A30AE005630AD0085
:10044800AD0B242AAE0B242AAF0B242A2B2A8312A5
:10045800031388100800B6195E2A0A128A110826A2
:100468000A128A118312031308150330AF008A3069
:10047800AE005630AD00AD0B3F2AAE0B3F2AAF0B96
:100488003F2A462A831203130811F81C572A013001
:10049800F7027708031D08000A128A1157268312EB
:1004A8000313361608000A128A11572683120313FB
:1004B800361608000A128A1108260A128A110A1228
:1004C8008A11572683120313361608000A128A1156
:1004D80008260A128A110A128A117D260A128A111E
:1004E8000A128A11572608000A128A1108260A12C7
:1004F8008A11831603130C107819902A0A128A118C
:1005080057260A128A1178158312031336121530EA
:100518000A128A11912608000A128A115726831294
:100528000313361608003008773A03196A2A0C3A7A
:1005380003192F2A063A03190C2A033A0319D22958
:10054800013A0319782AC83A03196C290C3A031995
:100558003329063A0319F628033A0319D928013A28
:1005680003199F29683A0319CF280C3A0319BD28A3
:10057800063A0319B328033A03199728393A031995
:100588006C280C3A03195E28063A03195028023AD7
:1005980003197A28D02A0800080083120313AC0034
:1005A800361EDB2A2C080A128A11B0250800781C8E
:1005B800052B2C08AB0001300310AB0DFF3E031DCB
:1005C800E02A03102B0D013E84000A128A113126FD
:1005D8000A128A11A0000A128A1131260A128A11F7
:1005E800A1000A128A1131260A128A11A2000A12DF
:1005F8008A1131260A128A11A3000A128A113B2392
:100608000800F81C172B2C080A128A11A0240A12B9
:100618008A117708031D08000A128A1157268312C7
:10062800031336160800831203132C08031D2C032A
:10063800031D2C2BF81D252B2C080A128A115A246D
:100648000800781D08002C080A128A117E25080067
:10065800361A08000A128A1157260A128A118312BA
:10066800031336162C080A128A11B02508008316BF
:1006780003130C108312031309150C30A500AF30B7
:10068800A400A40B452BA50B452B831203130911BA
:100698000630A500D730A400A40B502BA50B502B77
:1006A800831203130915F401203074020318972BE1
:1006B8000915B430A400A40B5F2B8312031309118E
:1006C800201C6E2BEF30A400692B6A2BA40B682B1F
:1006D8006D2B742BB43083120313A400A40B722B5C
:1006E800831203132008A4002108A5002208A600ED
:1006F8002308A70001300310A70CA60CA50CA40C16
:10070800FF3E031D7F2B2708A3002608A20025080B
:10071800A1002408A0000130A4002408F407203018
:100728007402031C5C2B0915B430A400A40B9A2B8B
:10073800831203130911080083120313831203138E
:100748008501860187018801890183160730831690
:1007580003139F001030850086018701880101304E
:100768008900831203138312353090008B17000021
:100778000B17000083120313850186018701880186
:1007880089018E018F018C018914000083120313E3
:1007980085118510091187150714071636113616A5
:1007A800B6110F30A6002608A80028080319F42B54
:1007B80000300A128A117E250A128A1141308312EA
:1007C8000313A700EE30A600A60BE82BA70BE82B17
:1007D8000000013083120313A8022808031DDC2B34
:1007E80007130000FF3083120313A6002608B50084
:1007F80035080A128A11DC2583120313B61408007F
:1008080083120313B4010918502CB40136104F3069
:10081800B100B10B0D2C102C273083120313B1003B
:10082800B10B142C172C83120313B30108303302B5
:1008380003183B2C3408B1000310310CB200320805
:10084800B400091C2C2C34088038B1003108B400DD
:100858004F30B100B10B2E2C312C01308312031311
:10086800B1003108B30708303302031C1E2C0918E5
:10087800452C2B30B100B10B3F2C83120313091800
:10088800472C3610502C89104830B100B10B4A2C37
:100898008312031389143614361C080034080A120C
:1008A8008A112220831203133610080083120313BF
:1008B800A800831603130C10831203133508A6002F
:1008C800A7012608A9002708AA002808031D862CC6
:1008D8002908103EA9002A080318013E003EAA0074
:1008E8002A08803AFF0081307F02031D7D2C0030EA
:1008F8002902031C952CFF3083120313A900003032
:10090800AA00952C2803031D952C2908F03EA90060
:100918002A080318013EFF3EAA00AA1F952CA90128
:10092800AA01831203132908A6002608B500350872
:100938000A128A11DC250800F400831603130C1030
:1009480083120313081088100811081288117408FC
:10095800031DB02C8815C62C7403031DB52C08166E
:10096800C62C02307406031DBD2C08150130F70291
:10097800C62C03307406031DC62C08140130A000D1
:100988002008F7070330A2008A30A1005630A000E3
:10099800A00BCC2CA10BCC2CA20BCC2CD32C8312CF
:1009A8000313881108120811081008008312031392
:1009B800A30087102730A000A00BE02CE32C8312A3
:1009C8000313A4017408240203180800240AA000D1
:1009D8008030A1000030A200F42C220DA20CA10C42
:1009E800A00BF12C83120313210823050319FE2CF5
:1009F8000715FF2C07112730A000A00B012D042D8F
:100A08008312031387142730A000A00B092D0C2D87
:100A18008312031387100130A0002008A407E62CD6
:100A28000130F902831603130C10831203130C1000
:100A380010107908031D2B2D86137810F8107811E3
:100A4800F811000083120313361600003D2D861797
:100A58008E010000831203138F01000035308312CA
:100A680003139000831603130C140000831203135E
:100A78001014730883120313FF0072088A007108A8
:100A88008400700E8300FE0E7E0E0900831203138D
:100A9800851C762D85120511051C602D0510083062
:100AA800A8009D30A7000B30A600A60B592DA70B58
:100AB800592DA80B592D602D831203138510071685
:100AC80036118710871107140716B61286120613F7
:100AD80007170813FF300A128A11DC258312031343
:100AE800B6100800851407120710851686143615E7
:100AF80036160800F4007408031D852DF501F50A63
:100B0800892D7403031D892DF501751C8F2D831202
:100B180003138716922D8312031387120000831282
:100B280003138717000000008312031387130000C4
:100B3800751CA22D831203138716A52D8312031388
:100B48008712000083120313871700000000831226
:100B58000313871300000800F4007408031DB92D5F
:100B68000130831203138606BC2D8312031306106B
:100B780002307406031DC32D04308606C42D0611E9
:100B880003307406031DCB2D08308606CC2D861144
:100B980005307406031DD32D10308606D42D061299
:100BA8007403031DDA2D023086060800861008003B
:100BB80083120313A50007100430F5007508F4002C
:100BC80030300A128A11DA240A128A110830F50024
:100BD8007508F4008312031325080A128A11DA240F
:100BE8000A128A110430F5007508F40000300A1260
:100BF8008A11DA24831203130714871100000000F6
:100C0800831203138715080083120313861606132D
:100C180007130817FF30F4007408F5007508031966
:100C2800252EF930F4000000F40B172E1B2E0000BF
:100C380080308312031388060130F5027508031DFE
:100C4800152EB61A2C2E861206130713081708003D
:100C58008612061707130817080006308A000408CA
:100C6800840A820700348034FF341334EC3480342F
:100C7800FF341734E8348034FF341434EB348034D0
:100C8800FF341034EF348034FF340E34F1348034C0
:100C9800FF340B34F4348034FF341934E6348034B0
:100CA800FF341B34E434831603130C10831203132C
:100CB8000C101010F818722E752E02300A128A11B4
:100CC800A0240A128A11823083120313A400DD3093
:100CD800A300A30B6D2EA40B6D2E722E7708031D97
:100CE800612E7810F8107811F81183120313861307
:100CF800080083120313361D0800B61E892EB6128B
:100D080086120613071708130800B61A0800B61645
:100D180086120617071308170800F5007508F4006F
:100D28007408F900831203130C108E018F013530FB
:100D38009000831603130C14831203131014080075
:100D48000A128A11A0230A128A1183120313B611F8
:0E0D58000A128A1104240A128A11AC2E1534D4
:02400E00B9FFF8
:00000001FF
